:020000041000EA
:1000000000B5324B212058609868022188439860DF
:10001000D860186158612E4B002199600221596106
:100020000121F02299502B49196001219960352056
:1000300000F044F80222904214D00621196600F024
:1000400034F8196E01211966002018661A6600F04E
:100050002CF8196E196E196E052000F02FF8012189
:100060000842F9D1002199601B49196000215960AB
:100070001A491B48016001219960EB211966A021F2
:10008000196600F012F800219960164914480160C1
:100090000121996001BC002800D000471248134993
:1000A000086003C880F30888084703B5996A0420EC
:1000B0000142FBD001200142F8D103BD02B5186610
:1000C0001866FFF7F2FF186E186E02BD00000240BE
:1000D000000000180000070000035F00212200005C
:1000E000F4000018222000A00001001008ED00E03C
:1000F00000000000000000000000000074B24E7A12
:1001000000200420F7010010C3010010C5010010F9
:10011000C1010010C1010010C1010010C101001097
:10012000C1010010C1010010C1010010C701001081
:10013000C1010010C1010010C9010010CB01001065
:10014000CD010010CD010010CD010010CD01001037
:10015000CD010010CD010010CD010010CD01001027
:10016000CD010010CD010010CD010010CD01001017
:10017000CD010010CD010010CD010010CD01001007
:10018000CD010010CD010010CD010010CD010010F7
:10019000CD010010CD010010CD010010CD010010E7
:1001A000CD010010CD010010CD010010CD010010D7
:1001B000CD010010CD010010CD010010CD010010C7
:1001C00000BE00BE00BE00BE00BE00BEEFF3058054
:1001D000103800BEF2EB8871888A0510A88A0510D5
:1001E0003402001090A31AE700201F49086006C8D7
:1001F00081F3088810471D48006800282FD10DA4FE
:100200000ECC002902D000F012F8F9E71849194A7B
:10021000002000E001C19142FCD1174988471749ED
:1002200088471749884700BEFDE701C901C29A42C5
:10023000FBD37047A88A0510C0000020C826002004
:10024000B0B005100000042000000420B0B005107C
:10025000001004200010042000000000704709482E
:1002600003F062FF0047000008ED00E0000000D04E
:10027000C82600202C4B00203D2E001099030010B2
:10028000FB2D00105756000006005250ABB36053D0
:10029000A0C1041006005250861C0302B0C1041015
:1002A000060052505422A29DB8C1041005005250BD
:1002B000DE65F468B0B00510F8B5C04610B5064C60
:1002C0002378002B07D1054B002B02D0044800E017
:1002D00000BF0123237010BDD027002000000000C4
:1002E000D08E0410044B10B5002B03D003490448F2
:1002F00000E000BF10BDC04600000000D427002071
:10030000D08E041070B504000D00012805D0002C1B
:1003100002D1074B9D4207D070BD054B9942F6D1E3
:10032000044808F067F8F2E7024808F073F8F3E7CA
:10033000FFFF0000443E002070B5D02109064B6845
:100340009B0801224C68E40814401A4211D10E4B5C
:100350001B78002B0DD00D4D286804F0A1FE0C4A2F
:100360000C4B04F070F904F097FA2860064B002259
:100370001A70002C06D1044B1B78002B02D1024BC3
:1003800001221A7070BDC046264B0020F41A0020CE
:100390007B14AE47E17A843FF0B5DE4657464E46C1
:1003A0004546E0B5D44CA54405F054F9D34DD449A5
:1003B000280000F03BFC96218901D24802F0BAFCEB
:1003C000022002F007FB032002F004FB042002F0ED
:1003D00001FB052002F0FEFA062002F0FBFA0720DE
:1003E00002F0F8FA082002F0F5FA0321002002F0EA
:1003F000BFFA0321012002F0BBFA0221102002F013
:10040000B7FA0221112002F0B3FAD0242406042303
:10041000A3620433A3620833636210336362E03380
:100420009846A362C03BA3624033A362002201212D
:10043000022002F0B5FA00220121032002F0B0FAF6
:1004400000220121002002F0ABFA0022012101204C
:1004500002F0A6FA00220121082002F0A1FA0022EF
:100460000121062002F09CFA00220121072002F05F
:1004700097FA4346A361FF3B3C22290093A807F06B
:1004800087FCA14805F0AAF80A2001F0E9F99F4C81
:100490004022210051A804F0F3FE21004031402207
:1004A00041A804F0EDFE9A4805F098F8994801F04B
:1004B000D7F9994805F092F801230793002398464D
:1004C00000230024049305949B4602339A46934BE1
:1004D000994645E2924B934A3F21934802F090FCA3
:1004E000FA21890003F074FE48E2904200D854E2F9
:1004F00057E209AB1C700021180000291AD1814B6A
:100500009B699B06FBD404787E4B1C600131013053
:10051000F3E709AB0D21197000211800002919D14A
:10052000784B9B699B06FBD40578764B1D600131A7
:100530000130F3E713780D3B59424B41DBB20132F6
:100540001478002C16D0002BD3D1784B00215B5EA1
:10055000A342DED009AB1C70002118000029E9D1AC
:10056000684B9B699B06FBD40478664B1C60013189
:100570000130F3E7079C21006D4805F05FF86D49F5
:10058000079420003CF04CF9040061AD020007998B
:1005900028003DF02BF900232B5501F015FA002916
:1005A00006DB0BD0FA229200002303F04FFE09E095
:1005B0005B4B5C4A3F215C4802F022FCFA21890037
:1005C00003F006FE04900023059343460F2B49D009
:1005D00001239C46E044002307934A4B9B6910216A
:1005E0000A001A40194240D0534B1868494604F09B
:1005F0003BFD002800D1ABE04F4B186804F050FDE4
:1006000004000D004D4A4E4B04F0A6F8002804D01B
:100610005346013B012B00D877E1484A484B200064
:10062000290004F08BF8002800D199E15346002BF3
:1006300002D0022B00D093E1D0231B065B681B067F
:1006400000D482E1D0231B06802252005A61F03A86
:100650005A6110329A615346022B00D080E1002388
:100660009A467DE100239846B5E70FA908E0254B9F
:100670009B69DB06FBD4234B1B680B7001320131F5
:10068000002AF4D00FAB1B78202B05D00A2B03D007
:100690000D2B01D0002B14D15B46002BA4DD08DD0F
:1006A0007AA800235A46835461A93CF071F80028C7
:1006B0000ED1642200217AA804F0DCFD00239B46C1
:1006C00092E77AAA5946535401239C46E3448BE7A8
:1006D0001C4C12221C49200024F0C0FB7AA83DF0DB
:1006E0001DF802007AA9200024F0B8FB0122174966
:1006F000200024F0B3FBDCE79CFDFFFFF81A00208C
:1007000040420F0000400340389004108C910410C8
:1007100048900410983A000068900410FF4FC347B7
:10072000709004108C900410C4900410084B0020AA
:100730000891041020910410F41A00207B14AE4795
:10074000E17A843F743B00202491041014020510C8
:100750001FA81AF0E7FA0FAC984B23640025B023CA
:10076000E5500433E5540133E5540333E5500433D5
:10077000E5500433E5500433E550914A53680F9334
:100780000C3B1B68942189005B1804A98C466344C8
:100790008C498C46634492681A600F9B0C3B186826
:1007A000A446604400211AF043FA874B0F93143398
:1007B0002364864B6360A560E56025616561A56182
:1007C000E56117A808F00EFD814B6360102363629A
:1007D0001BABA362E5623023E55410A91FA81AF0F1
:1007E00027FA0F9B0C3B1A68A4466244794BD168E8
:1007F0000B40D36004210B43D3600F9B0C3B1B6861
:10080000634402225A60744B186804F049FC0200E9
:100810000B00200024F060FC09AB0BAA09920A959A
:100820001D72A269002A6BD013998A425ED9149B6B
:100830000A98D11A02000091002109A825F028FD8C
:100840000A9B1C1F24013F3493A807F052FA002191
:1008500093A807F0D3FA002502950195009500238F
:10086000099A5E4993A807F06FFBE3B202950195E0
:100870000A2200925A4A5B4993A807F065FB93A8A5
:1008800007F04CFA544B1B68994609980BAB9842F9
:1008900003D00B9B591C04F009FD4B4B0F931433F1
:1008A0001F934B4B109319981BAB984203D01B9B83
:1008B000591C04F0FBFC454B109317A807F07CFE75
:1008C0003F4A53680F930C3B1B68942189005B18C7
:1008D00004A98C4663443B498C46634492681A6081
:1008E000364B1F931FA81AF05BFA85E6149B0A98F3
:1008F000C91A02000091002109A825F0C9FC9FE750
:1009000019A909A825F05EFB9AE7D0231B065B68AE
:100910005B060ED5D0231B06802252005A61F03AA6
:100920009A6110325A615346022B19D101239A461B
:1009300016E0D0231B06802252009A61F03A9A6199
:1009400010329A6100239A460AE0D0231B068022C7
:1009500052009A61F03A9A6110329A6101239A46E4
:10096000FFF7EAFC01F030F8002900DAB2E500D127
:10097000B6E5FA229200002303F068FC0027390054
:10098000049B059CC01AA14143469B0041AA9A586A
:10099000D317994205D800D1A7E5079B002B00D1BA
:1009A0001BE643469B0051AA9B5807930E4A6421BD
:1009B0000FA803F07FFB00230FAAC1E5A4EB0410EE
:1009C00060F50410DCFDFFFF7CF504102CF604102C
:1009D00000F50410FBFEFFFFF41A0020F89A041043
:1009E000889104100C9204100491041010B502496F
:1009F0000120FFF787FC10BDFFFF0000F0B5DE46C9
:100A000057464E464546E0B585B0060010001C002E
:100A100002930EAB1A7803920F9D109F3368002249
:100A2000DA663368596033680132DA66A246002319
:100A300098469B4600242BE03279002A31D00122CF
:100A40002FE00399002901D000212EE001212CE0A4
:100A50003800A84703000443E4B2002B06D13268F3
:100A6000526BD20602D4002DF2D1F6E7002B09D149
:100A70003268802151588B4600291FD1002C2FD17C
:100A8000C1451ED0002C33D101229446E044019888
:100A9000D0452DDA029A013A91464246002ACBD03F
:100AA00000229202C145CCD0002149020A43411CD8
:100AB00001910078316802430A61D4E7526D012444
:100AC0000EE0039A002ADDD10AE03800A8470300AF
:100AD0000443E4B2002B06D13268526B920502D473
:100AE000002DF2D1F6E7002BCCD13268126EC9E7A7
:100AF000002C09D0002B15D15B46002B16D0DB074C
:100B000018D45B461B0709D5039B3371404605B0DB
:100B1000F0BCBB46B246A946A046F0BD02235B42EC
:100B20009846F1E701235B429846EDE702235B42DA
:100B30009846E9E702235B429846E5E7F0B5D646DA
:100B40004F464646C0B505000C00052001F00AFFDF
:100B5000060060088019210003F03AFB07004300FB
:100B6000994681440521484603F032FB80463B1AF2
:100B70009A46284B9C4224D870008019264903F0DD
:100B800027FB441C4346023BA34221D32B6800228F
:100B9000DA6629680A680423534006221A40802333
:100BA0005B010B431A602B685246DA612B684246A0
:100BB0001A624B464F2B11D95021484603F008FBCF
:100BC0000DE070008019154903F002FB441CD9E7C1
:100BD000134B144A5D21144802F012F90120A0239E
:100BE0002A68D0502A6811007C31D06F4440240418
:100BF000240C80235B010B431C602B680122DA6606
:100C00003900300003F0E4FAE0BCBA46B146A84629
:100C1000F0BDC0463F420F008096980040787D01AD
:100C2000BCB2041014B30410DCB2041010B5114BA4
:100C300098421CD01022104B1A60104B1A60104BB7
:100C40009B6814009C43231EF9D104710268D4668A
:100C500002686624FF3414600268D36302689363F9
:100C6000883303220468E250FFF768FF10BD0822B2
:100C7000E1E7C046F81A002000E0004000F0004024
:100C800000C0004030B585B008AC2578002402943F
:100C900001940095FFF7B2FE05B030BD034B1B6811
:100CA00002201840431E9841C0B2704700C0064061
:100CB000EFF3108072B6034B1B68002BFBD0BFF321
:100CC0005F8F70472C0100D0BFF35F8F024B002273
:100CD0001A6080F3108870472C0100D0F8B5060028
:100CE0000C001500FFF7E4FFE308F718F15C07229A
:100CF0002240012393400B4205D1DBB20B433B70F2
:100D0000FFF7E2FFF8BD2100280002F013F9F0B56B
:100D100083B00600019114001F00FFF7C9FF00E037
:100D20000134BC420CD8E308F518F35C07212140DC
:100D300001228A401A42F3D1D2B21A432A7001E04A
:100D400001246442FFF7C0FF002C02DB200003B047
:100D5000F0BD019B002BF9D0089802F0EBF80000E1
:100D6000002307E0054A9A189200BFF35F8F002125
:100D7000116001331F2BF5D97047C0464000003485
:100D8000054A1078431CDBB21370172B02D91300ED
:100D900010221A707047C046001B002000B583B0B7
:100DA0000100044B00931F2318220348FFF7AFFFF5
:100DB00003B000BD28B304101044002070B5050036
:100DC0000C00080000F000FF0949200000F040FE80
:100DD000FFF7D6FF074B9C466044800068602C7587
:100DE000D0231B061B786B75A400034BE55070BD28
:100DF0000111001040000034CC4800200A4B1A6852
:100E0000EFF3108172B61368002BFCD0BFF35F8F35
:100E1000054B1B68BFF35F8F00221A6081F31088B7
:100E200040BF002000217047EC4A002010B5002987
:100E300022D003681B7B99421ED8174B9C46614405
:100E4000090183689C4661440C684968002A19D0EE
:100E500003681B7B9A4215D883680F488446624416
:100E600012019A1810685368020001208B4201D8C1
:100E70000ED00020C0B210BD084B094A3C210948E1
:100E800001F0BEFF054B064A3C21064801F0B8FFC1
:100E9000A242EFD8EDE7C046FFFFFF0F8CB304106E
:100EA000ECB5041058B3041010B500291ED0037B14
:100EB00099421BD84B005B18033B0468A44663446B
:100EC000002919D0002A1DD0914221D0002A25D016
:100ED000047BA24222D804685000801803382018EE
:100EE0008170197800291FD11A7010BD104B114A5A
:100EF0006821114801F084FF104B114A6F310E48F0
:100F000001F07EFF0F4B0E4A70210B4801F078FF75
:100F10000D4B0B4A7121084801F072FF044B054A42
:100F20006821054801F06CFF41701A70DDE7C0468A
:100F3000B0B3041058B60410CCB3041014B40410A9
:100F400034B6041020B404102CB4041070B506009C
:100F50000D001400002914D0002A14D08068736892
:100F60009847002806D0220029003000FFF79CFF98
:100F7000280007E02A0021003000FFF795FF20003D
:100F800000E0100070BD0800FCE70000F0B583B081
:100F90000500009201930AAB1C780BAB1F78002C64
:100FA00026D003685A7B944207D10123002B19D124
:100FB000002C3BD1200003B0F0BD002C0CD01A7BDC
:100FC000944209D81A6863001B19033BD3189B7815
:100FD000002BEBD00123E9E73E4B3F4A68213F4815
:100FE00001F00EFF3E4B3F4A67213F4801F008FFEA
:100FF00003689C7B002CDBD012D01A7B94420FD864
:1010000062001219033A19688C4662445178997348
:10101000002900D1D9730023937053701370C7E770
:101020002C4B2D4A68212D4801F0EAFE002C3AD0C5
:101030002B681B7B9C4236D82C4BE3181B01AA68FB
:1010400094466344009A1A60019A5A60089A9A601A
:10105000099ADA602E68002C2BD030D0337B9C426A
:101060002DD863001B19033B326894466344002269
:101070009A705A701A70717B22003000FFF766FF79
:101080007073844200D095E7287D009A019B00F0A0
:1010900027FD061E01D0002F17D00C9B002B00D17E
:1010A00088E71E7086E7124B124A3C210E4801F079
:1010B000A7FE114B114AA521084801F0A1FE054BDE
:1010C000054A6821054801F09BFE2868210001F0CF
:1010D000C9FAE2E7B0B3041058B60410CCB3041058
:1010E00044B4041064B6041058B30410FFFFFF0F9B
:1010F0008CB30410ECB5041054B3041048B60410BB
:10110000F0B5DE4657464E464546E0B58BB00990F1
:10111000002308938200B54BD658370052E0B44BF9
:10112000B44A3F21B44801F06BFEB44BB44A3C21B1
:10113000B44801F065FE002901D1002869D10021E1
:10114000404601F085FAA04219D12A686B680692E0
:101150000793AB689846EB689A464346002B14D039
:10116000002C18D03B681B7B9C4214D8631EFA6885
:10117000D35C08931B0218433861002015E0A24B92
:10118000A24A8E219F4801F03BFEA14B9F4A92212B
:101190009C4801F035FE994B9E4A4121994801F047
:1011A0002FFE00239A46984600207B68BFF35F8F8E
:1011B00000221A6086F310884346002B32D10028A3
:1011C00000D10CE100F000FC02000B1EA7DB0020A8
:1011D0000021069007917868EFF3108672B60168D7
:1011E0000029FCD0BFF35F8F396888464C7B002C08
:1011F000D7D09AD0097B8C4297D8874965182D01A2
:10120000B9688C46654428686968801A9941002944
:1012100091DD2A686B68099800F062FC00239A4609
:101220009846C2E7089B1B02234399465146180083
:10123000C04705000E007A68EFF3108B72B6136892
:1012400059424B41D9B2002BF9D1BFF35F8F002E29
:101250001EDB002E46DD3B69002B47D04B456DD190
:1012600000F0B2FB02000B1E6EDB52197341002B23
:1012700070DB002B72DB0021049101310391029499
:1012800051460191414600913800FFF77FFE4CE046
:101290003B69002BDDD04B4514D1069A079B521BAE
:1012A000B341002B14DB002B16DB0021049101312C
:1012B0000391029451460191414600913800FFF795
:1012C00065FE32E0554B514AA1214E4801F098FD90
:1012D00001225242524BE6E7454B464A3F214648DF
:1012E00001F08EFD002E01D1002DB4D13B68002C01
:1012F00050D05A7B944237D1012100294AD1DA7B60
:10130000002A4DD19A7B002A03D1DA7B002A5AD1D8
:101310009C73DC73002C5CD03B681B7B9C4258D8D0
:10132000FA68013C135D0133135500233B617A6871
:10133000BFF35F8F13608BF3108843E7374B334A5B
:10134000A421304801F05CFD294B2A4A3F212A485C
:1013500001F056FD01225242314B8AE7244B254AC7
:101360003F21254801F04CFD002C0DD01A7B944202
:101370000AD862001219033A1868844662449278C7
:10138000002ABAD00121B8E7264B274A682127480E
:1013900001F036FD264B274AF621244801F030FDA6
:1013A000002A0AD0197B8A4207D851008A18033ACA
:1013B00019688C4662445470A4E71A4B1A4A682193
:1013C0001A4801F01DFD1C4B1A4AFB21174801F079
:1013D00017FD0A4B0F4A41210A4801F011FD0BB0DD
:1013E000F0BCBB46B246A946A046F0BDCC480020A2
:1013F00070900410B8B50410C49004108CB304109D
:10140000ECB5041058B304106CB40410D0B504103B
:1014100084B4041010B60410FFFFFF0F90B4041042
:10142000FFFFFF7FB0B3041058B60410CCB3041014
:10143000CCB4041024B60410F0B4041010B50C4B56
:101440005B68002B04D00A210A4800F02FFF10BD72
:10145000074C2300084A1021206801F009F80320F6
:1014600000F0A6FA03212000FFF7A8FCEBE7C04636
:10147000041B0020EC4A00202D0E001010B5064B76
:101480005B68002B01D0044810BD044B044A5E2168
:10149000044801F0B5FCC046041B002004B504104C
:1014A000F8B5041058B30410F0B5DE4657464E4662
:1014B0004546E0B58BB0804616001F00149B9A4647
:1014C000159B994616AB1B789B461F2302AA944690
:1014D000634400221A702BE0002809D042461268AB
:1014E000127B904204D8421E4146C9688A5C41E0A2
:1014F000404B414A4121414801F082FC07984CE0B1
:10150000361BAF41002F07DB002F11DA3C4B3D4A61
:101510003F213D4801F074FC012676423B4FF3E742
:10152000374B384A3F21384801F06AFC002F4FDB27
:1015300043465A68EFF3108472B6136859424B4120
:10154000D9B20791002BF8D1BFF35F8F1F3302AAE6
:101550009446634404930023039302934B46019300
:101560005346009332003B004046FFF70FFD031E39
:10157000B2D1020041464968BFF35F8F00250D607C
:1015800084F31088002B29D01F2302A98C466344C2
:101590001B78002BB2D112021043002B20D05B46E7
:1015A000002B1DD04946D04704000D0003000B431B
:1015B0001DD00029A4DB00F007FA06000F1EAFDBE8
:1015C00036196F41002FB1DA012676420F4FADE791
:1015D0000B4B0C4A3F210C4801F012FC0120404209
:1015E0000BB0F0BCBB46B246A946A046F0BD07987A
:1015F000F6E7C0468CB3041010B6041058B30410BC
:1016000070900410B8B50410C4900410FFFFFF7F61
:10161000F8B50400002900D162E04268EFF31085BC
:1016200072B6136858424341D8B2002BF9D1BFF3C8
:101630005F8FCBB22268567BB3421BD101200028BA
:1016400048D0206988422BD0090AC9B2002B2ED07D
:101650002068007B83422AD8581EE668305C8842A6
:101660002BD000206368BFF35F8F00221A6085F3E0
:101670001088F8BD002B0DD0167BB3420AD85E004F
:10168000F618033E1768BC466644B678002ED6D0DE
:101690000120D4E7134B144A6821144801F0B0FB31
:1016A0002C21134B134AFF31134801F0A9FB134BB4
:1016B000134A4121104801F0A3FB1900100000F06B
:1016C000D1FF0028CED199210E4B0A4A49000A4881
:1016D00001F096FB23698B42C4D100232361C1E74B
:1016E0000020C6E7B0B3041058B60410CCB3041001
:1016F00028B50410A0B5041058B304108CB304101E
:1017000010B604104CB50410407D7047F0B587B09A
:1017100006000F00EFF30583002B1FD1062464425F
:10172000E517A4197D418D4202D803D1844201D925
:1017300000240025002D14DB0494059500F044F9E5
:1017400002000B1E13DBA41A9D41002D17DC14D0E0
:101750003000390000F044F907B0F0BD234801F033
:10176000E9FB234B234A3F21234801F049FB204B4F
:10177000204A3F21204801F043FB002CE8D0FFF72E
:101780007DFE0023029301931C4B0093049A059B5A
:10179000FFF78AFE002818DADAE7002300E00023CA
:1017A000002BD5D1164B1A68EFF3108172B613686F
:1017B000002BFCD0BFF35F8F114B1B68BFF35F8F13
:1017C00000221A6081F3108820BF0499059A0D4BFE
:1017D0005B6A9A42E3D80B48806A884203D29A42F5
:1017E000DBD00123DCE70123DAE7C04650B5041063
:1017F00070900410B8B50410C4900410FD0D0010D2
:10180000EC4A00200040054070B504000D0000F0D7
:10181000DBF802000B1E0ADB20002900801859416A
:1018200000290ADB00290CDBFFF770FF70BD084BB5
:10183000084A3F21084801F0E3FA012040420749E5
:10184000F0E7034B034A3F21034801F0D9FAC046B1
:1018500070900410B8B50410C4900410FFFFFF7F0F
:1018600010B5FA2292000023002103F0BBFBFFF722
:10187000CBFF10BD70B584B005000C00EFF30583FD
:10188000002B1ED1FFF7FAFD002302930193224B98
:1018900000932A002300FFF707FE061E23DD20BF6A
:1018A000FFF7ECFD3100FFF7B3FE1C4B5B6A9C4277
:1018B0002DD81A4A926AAA422CD29C4225D00120E5
:1018C00026E0164B5B6A994209D8144A926A824212
:1018D00007D2994201D001201AE0002018E0002030
:1018E00016E0012014E00D4B5B6A9C4209D80B4ABC
:1018F000926AAA4207D29C4201D0012008E000204F
:1019000006E0002004E0012002E0002000E00020CA
:1019100004B070BD0120FBE7FD0D00100040054044
:1019200070B5EFF305801038EFF3108C72B61A4BD8
:101930001B68002BFBD0BFF35F8F01221300834095
:1019400016494B6316490B60164909780C00C440D0
:10195000224214D0114A546A8200134D52599442C3
:1019600006D38200114C125999430E4B197007E0AF
:101970000A4A031D9B0099589950002200E000225A
:10198000BFF35F8F044B002119608CF31088002A8D
:1019900000D0904770BDC046280100D000400540EF
:1019A0003C700540274B0020F84A0020F8420020F8
:1019B00010B50100024A0348FFF790F910BDC04678
:1019C00088B60410214B0020044B5B6A034A906ADE
:1019D0001900536A9942F9D17047C046004005404A
:1019E000084B5B6A01E0074B5B6A8B42FBD301E06B
:1019F000044B5B6A8B4203D1024B9B6A8342F7D351
:101A00007047C0460040054070B504000D00FFF768
:101A1000DBFF02000B0020002900801859418B4297
:101A200002D804D1824202D901204042C1170029C4
:101A300002DBFFF7D5FF70BD024B034A3F2103488D
:101A400001F0DEF97090041028B70410C49004105F
:101A500070B504000D00EFF3108672B61B4B1B68C7
:101A6000002BFBD0BFF35F8F002D1CD0200000F0B7
:101A70004FF9174B83420BD01900200000F062F998
:101A80000121200000F034F90123A340114A136022
:101A9000A400114BE550BFF35F8F0C4B00221A607E
:101AA00086F3108870BDA2000B4B0021D15001229B
:101AB000A2400A490B7893430B700549200000F0BF
:101AC00085FA0021200000F013F9E4E7280100D096
:101AD0002119001038600540F8420020274B0020F3
:101AE000F0B5DE4600B584B00400150001921E007A
:101AF0000293FFF769FF03958E4202D84ED18542CB
:101B00004CD9EFF3108B72B6274B1B68002BFBD020
:101B1000BFF35F8F254A17780125A540EBB23B4301
:101B20001370234B5D63221D92000199D150A200D6
:101B30002049029850501B6A2B4212D11C4B1B6C3F
:101B40002B4208D00020BFF35F8F174B00221A6092
:101B50008BF3108823E0184B184AC521184801F070
:101B60004FF9FFF731FF8E4214D802D1039B834215
:101B700010D80E4B1B78BB420ED00D4B1D625D631F
:101B80001F2004400123A3400E4A1360074B1F701F
:101B90001E38D8E70020D6E70120D4E7012004B0A2
:101BA00080BCBB46F0BDC046280100D0274B0020BA
:101BB00000400540F84A0020ACB604100CB70410F1
:101BC000D0B6041080E200E0EFF3108C72B60B4B3D
:101BD0001B68002BFBD0BFF35F8F01238340084AB3
:101BE000136208490A789A430A70BFF35F8F034B68
:101BF00000221A608CF310887047C046280100D07C
:101C000000400540274B0020074B9B6810308000A8
:101C10001950BFF35F8FBFF35F8F044B0021196032
:101C200082F310887047C04600ED00E0240100D028
:101C300010B5091A081F0A4B9C466144094A914293
:101C400008D8C30706D440104005400D064B184382
:101C500080B210BD054B064AA321064801F0D0F81A
:101C6000FC070000FE0F000000E0FFFF40B704107B
:101C7000A8B9041070B7041010B5091A04394C083B
:101C8000090B08D14905490D064A11430180064B4D
:101C90002343438010BD054B054AAB21054801F0A5
:101CA000AFF8C04600F0FFFF00F8FFFFA8B7041030
:101CB0007CB9041070B7041001238340034A1068F4
:101CC0001840431E9841C0B27047C04600E100E092
:101CD000002904D0034B1860034B18607047034B76
:101CE0001860FBE780E200E000E100E080E100E056
:101CF00010B5012383401800FFF7EAFF10BD000074
:101D000001238340014A13607047C04600E200E0AF
:101D1000024B9B6810308000C058704700ED00E017
:101D200010B5FFF7F5FF002805D0054BC01A2F2886
:101D300003D8012010BD0020FCE70020FAE7C046D0
:101D40002C1B002070B504000D00EFF3108672B656
:101D50000C4B1B68002BFBD0BFF35F8F2000FFF7FD
:101D6000D7FF094B984201D0A84205D13200290083
:101D70002000FFF749FF70BD044B054A8621054846
:101D800001F03EF8240100D0CD010010B8B70410D6
:101D9000DCB9041070B70410F0B5DE4657464E4665
:101DA0004546E0B589B0814601911500EFF3108AF0
:101DB00072B6744B1B68002BFBD0BFF35F8F724B66
:101DC0000027DF57002F40DB7C00E419A4006F4898
:101DD00024180622A2566C4B1A706D4B9A684B461B
:101DE00010339B00D35898461E001B1A2F2B38D94E
:101DF000684B98452FD105AE674B33807B009B46DF
:101E0000D8198000614B9846404402306349FFF77F
:101E10000FFF7080624BB380FF23B371F571019B9C
:101E200007935F44BF0047440ECE0EC701231C43F7
:101E3000A046524641464846FFF7E6FE09B0F0BCD0
:101E4000BB46B246A946A046F0BD564B564AD721DE
:101E5000564800F0D5FF564B534ADE21534800F058
:101E6000CFFFC04340440C2102F0B2F9002912D147
:101E700001239E43B34633000026DA79AA4211D9E2
:101E80000621595600290CDB4A00521892001E0008
:101E90003E4B9B18F1E7474B434AEA21434800F089
:101EA000AFFF1E00002E3AD005AB434A1A80813A9C
:101EB0005A800623F3560293002B17DA3F4805ABEE
:101EC0009B469880029A9A71DD71019A0792301DA3
:101ED0002100FFF7ADFEB080B7717B00DB199B00DE
:101EE0002A4FFF185B4607CB07C7A2E77800C01947
:101EF0008000264BC0180430321DB388D90A1C2933
:101F000007D15B055915023149005118FFF790FEC2
:101F1000D5E72B4B2B4AB121244800F071FF05AEC9
:101F20001D4B33807B000293D8198000174A9046DE
:101F3000020042440392901C1849FFF779FE70801A
:101F4000039A101D5946FFF773FEB0801E4B5A4688
:101F50004146521A524153431B0DB371F571019A18
:101F60000792029B9C466744BF0047440ECE0EC7B3
:101F7000114B5A461380813B538001231C43A046DA
:101F800057E7C046240100D0224B00202C1B002024
:101F900000ED00E0CD01001000A1FFFF5C1B002060
:101FA00001BDFFFFF0B70410C4B9041070B70410EE
:101FB00018B8041040B804100148000001BD00002A
:101FC000B4B80410B4B90410AAAA0000F0B5CE4603
:101FD000474680B583B006000D00EFF3108872B657
:101FE000564B1B68002BFBD0BFF35F8F544B9A6896
:101FF00034001034A300D758524B9F4207D0AF4251
:1020000000D198E00197504BFB1A2F2B09D942467B
:1020100039003000FFF7F8FD03B0C0BCB946B04648
:10202000F0BD3000FFF748FE814600213000FFF789
:102030005FFEBFF35F8FEFF30581002901D08C4273
:1020400011D10123019C9C430022A368AB4212D012
:102050000622A256002A0DDB53009B189B0022008B
:10206000394CE418F1E73621384B394AFF31394809
:1020700000F0C6FE2200AB4256D106256557002D62
:1020800038DB6B005B199A002F4B9B189A68A26093
:10209000DA79E27106229A56A2719B795BB2002B23
:1020A0000FDA2D48A0806B005B199B00264AD318DD
:1020B0002A4A11789971157049463000FFF718FEC9
:1020C000A5E7201D6B005B199B001F4A9B181A1D7A
:1020D0009B88D90A1C2907D15B055B15023359007F
:1020E0005118FFF7A5FDDDE71D4B1E4AB121194828
:1020F00000F086FE002912D1002A0ED0FF23937132
:10210000194B9380154A1378A371184B0E49641A22
:10211000644163431B0D1370CEE70A4FF2E7201DA5
:102120001349FFF7A9FDC7E76A21124B084AFF319F
:10213000084800F065FE034F69E7C046240100D05F
:1021400000ED00E0CD0100102C1B0020CCB80410E5
:1021500094B9041070B7041001BD0000224B002098
:10216000B4B80410B4B9041001BDFFFFAAAA00005E
:10217000661B002000B9041070B5012101432E4BED
:10218000CB1A2F2B28D8EFF30583002B2BD0EFF39E
:10219000108C72B6294A1268002AFBD0BFF35F8FF9
:1021A000274A0400244D641B64416243120D54B25B
:1021B000244A92689B00D2588A421BD00022032AEC
:1021C00032D853009B189B001B49CB189B795BB2FC
:1021D000A3421FD00132F2E7C7211B4B1B4A490023
:1021E0001B4800F00DFE92211A4B184AFF31184887
:1021F00000F006FE134A92681749D150174B1A781F
:1022000082711C70BFF35F8F0C4B00221A608CF33D
:10221000108870BD0D005300991889006918FF26B9
:102220008E710F4A8A80E9E7D1210E4B074A490097
:10223000074800F0E5FDC0462C1B0020240100D01B
:10224000AAAA000000ED00E008B9041060B904106B
:1022500070B7041030B90410CD010010224B0020DB
:1022600001BDFFFF3CB904100022044B02E0044909
:1022700002C30132072AFAD97047C04600E400E0E1
:102280008080808000B583B00100064B0093052359
:1022900000220548FEF73BFD002801DB1F23181A2A
:1022A00003B000BD44B90410284B0020024B9C46EB
:1022B00061448900016070474000003410B504009B
:1022C000FEF75EFD01002000FFF7F0FFFF23237102
:1022D000BFF35F8F10BD10B50400FEF751FD010084
:1022E0002000FFF7E3FFFF23237100236371BFF397
:1022F0005F8F10BD034B9C46614489000160BFF3B2
:102300005F8F70474000003410B504000120FEF7D5
:1023100045FD01002000FFF7EDFF10BD10B50029BD
:102320001ED0037B99421BD84B005B18033B04680B
:10233000A4466344002919D0002A1DD0914221D01F
:10234000002A25D0047BA24222D8046850008018BD
:10235000033820188170197800291FD11A7010BD18
:10236000104B114A6821114800F04AFD104B114AE8
:102370006F310E4800F044FD0F4B0E4A70210B48A0
:1023800000F03EFD0D4B0B4A7121084800F038FD6E
:10239000044B054A6821054800F032FD41701A706F
:1023A000DDE7C046B0B30410A4BB0410CCB30410E6
:1023B00014B4041090BB041020B404102CB4041006
:1023C00070B506000D001400002914D0002A14D0A6
:1023D000806873689847002806D0220029003000E2
:1023E000FFF79CFF280007E02A0021003000FFF7DC
:1023F00095FF200000E0100070BD0800FCE7000021
:1024000010B50023437301338373037BC37301232C
:10241000027B9A4214D9002B0CD0027B934209D83C
:102420005A00D218033A01688C4662440133DBB289
:102430005370EDE70B4B0C4A68210C4800F0E0FCB0
:10244000002A09D0924207D8016853009A18033A2B
:102450008A180023537010BD024B034A68210348B9
:1024600000F0CEFCB0B30410A4BB0410CCB3041035
:1024700010B5017342608360FFF7C2FF10BD00001A
:1024800070B50400081E00D170BD002934D0237B34
:10249000994231D84B005B18033B22689446634451
:1024A0005A78002AF0D02DD0237B9A422AD85300A4
:1024B0009B18033B21688C4663445D78002159706A
:1024C000002825D0237B984222D843001B18033BC9
:1024D00021688C4663440021597001002000FFF7F9
:1024E0006FFF060029002000FFF7CAFF020031003D
:1024F0002000FFF765FFC7E7084B094A6821094834
:1025000000F07EFC054B064A6821064800F078FC86
:10251000024B034A6821034800F072FCB0B3041078
:10252000A4BB0410CCB3041070B505000C00160059
:1025300000292FD034D0037B994231D84B005B184F
:10254000033B0268944663445A78002A2ED19A7855
:10255000002A31D11978FFF793FF0300002E0AD02B
:10256000EA7B002A2ED1AA7B002A03D1EA7B002A2B
:102570003BD1AC73EC73002B3DD1002C4FD02B7BA7
:102580009C424CD82B6861000C19033C1C19002399
:10259000637070BD254B264A3821264800F030FC78
:1025A000254B264A6821264800F02AFC254B204A64
:1025B0003A21204800F024FC234B1D4A3B211D48B2
:1025C00000F01EFC002A0AD0297B8A4207D851005D
:1025D0008A18033A29688C4662445470C3E7164B44
:1025E000164A6821164800F00BFC184B104A42218D
:1025F000104800F005FC002B0BD02A7B934208D832
:1026000043001B18033B2A689446634400229A70D7
:10261000B3E7094B094A6821094800F0F1FB064B72
:10262000064A6821064800F0EBFBC046BCBA04101D
:102630007CBB0410C4BA0410B0B30410A4BB0410D3
:10264000CCB30410F8BA041020BB0410F0B404108A
:1026500070B504000A00457B2900FFF765FF607331
:10266000280070BD70B50400002967D0437B8B4201
:102670000ED0002911D0037B99420ED84B005B1875
:10268000033B0268D0188378002B0CD1002056E061
:102690000121FFF7DDFF012051E0294B294A682184
:1026A000294800F0ADFB002B20D0227B93421DD89F
:1026B0005A00D318033B2268D2182568EB5C8B4282
:1026C0001AD0002B1BD0227B934218D85A00D31863
:1026D000033B2268D21853788B4216D0002BF0D1DE
:1026E0001A4B1B4A6B211B4800F08AFB144B154AFE
:1026F0006821154800F084FB4378137007E0104B05
:10270000104A6821104800F07BFB43785370002387
:102710008370437001222000FFF706FF0200617BF7
:10272000814205D02000FFF74BFE6073012006E0D8
:10273000094B074A7121074800F062FB002070BD79
:10274000B0B30410A4BB0410CCB304103CB9041003
:1027500064BB0410C4BA041044BB0410F8B5DE46D0
:1027600057464E464546E0B505000F0092460A9A88
:10277000934250D31A0E91461E020A9A002330004B
:10278000494601F063FD80466C006419A400304B9B
:102790009C4664446368834200D260602B1FDBB2B6
:1027A0009B46012B3DD9C0239B012343802212016C
:1027B0001A60AB00274A9958002907D0506901F0E8
:1027C00007FD431C5800C0180338FDD253465A0178
:1027D00023685A40E0231A4080235B0123431A6098
:1027E0005A46012A28D980239B01234380221201C3
:1027F0001A6043466360424600233000494601F0B8
:1028000025FDAD00134B58510120F0BCBB46B2462C
:10281000A946A046F8BD104B104A3321104800F0DD
:10282000EFFA012FBFD1C0239B01234303221A607B
:10283000A368DB07FCD5C9E72168794003220A4079
:102840001A60A2680123BB401342FAD0CBE7C0460E
:102850000080004014440020B0BB041004BC0410ED
:10286000C4BB041030B583B00C2000F04FF9FEF764
:1028700015FA00280DD0002304E099002D4A2E48B7
:1028800088500133092BF8D92A4B2C4A5A6203B0DD
:1028900030BD2B4B00229A6700F0AAF9294B012288
:1028A0001A60274B5B6C012BFBD1274B03221A606C
:1028B000234B9B6B012BFBD1013300930433234A41
:1028C0000121234800F092F805230093214A0121B9
:1028D000214800F08BF8214B0093002202210420B4
:1028E000FFF73CFF1E4D00952B0000220121052023
:1028F000FFF734FF104C0094230000220021072032
:10290000FFF72CFF00942300002200210820FFF78E
:1029100025FF0A4B00932300002200210920FFF726
:102920001DFF00952B00002200210620FFF716FF57
:10293000ADE7C04614440020006CDC021BB7000069
:10294000008000403CB0004030B00040002F68598B
:1029500000800240008C864700C00240001BB70088
:10296000405973078000014BC05870471444002041
:1029700010B58300084A944663441C6840226240B4
:10298000C02414408022520113431C60C000034B3A
:102990009C466044416010BD04C0014000400140BD
:1029A00080000B4B9C46604400290DD00823002A70
:1029B0000CD004221343026853400C22134080229F
:1029C00052011043036070470023F0E70022F1E753
:1029D00004C0014010B501238340D0221206936247
:1029E00093610521FFF7C4FF10BD0000F0B5C64696
:1029F00000B504000E0017001D00374801F0E8FB89
:102A00008046364BFA18364B9A4239D801003800C6
:102A100001F0DEFB0200103A98235B009A4235D8A1
:102A20006B1E062B38D8069B013B062B34D83F097A
:102A3000474537D32D04069B1A0315432368002B03
:102A400036DB284B9C4244D080225201264B1A6030
:102A5000264B1A60264B9B6811009943FAD12660D9
:102A6000A060231DC02292011A4321231360236812
:102A7000002BFCDAE5600823136080BCB846F0BD8B
:102A80001C4B1D4A11211D4800F0BAF91C4B1A4A73
:102A900019211A4800F0B4F91A4B174A1C2117489B
:102AA00000F0AEF9184B144A2321144800F0A8F99D
:102AB00022683F231340B342C3D1A3681B051B0DFB
:102AC0008342BED1E368EE22D2021340AB42B8D1BA
:102AD000D3E780229201B9E7001BB70080E84BD30F
:102AE00080F8A93200C0024000E0004000F0004041
:102AF00000C0004014BC041030BD041074BC0410AD
:102B0000ACBC0410C8BC041014BD041080239B008E
:102B10000343014AD362704700800540024B1A68A4
:102B2000024B5A607047C046BC48002000800540F8
:102B300010B50200164B8020C0051860154B1648D2
:102B4000186000290AD0154BE021C9041960002A39
:102B500009D1124B802212061A6010BD0C4BE021E5
:102B6000C9041960F3E753019B1A9800801800010B
:102B70000B4B186080235B04984202D3084B094A30
:102B80001A60FFF7CBFF054B8022D2051A60E4E7FD
:102B900000B0054008200140FCFF010000A00540F6
:102BA000BC480020FFFFFF0010B5030010000C4AD6
:102BB0008024E4051460002B0DD001221343094A40
:102BC000094CD461094C5C4014625162936200214B
:102BD000FFF7AEFF10BD034B0022DA61F7E7C046F6
:102BE00000B0054000800540D3C007B02D3FF84F2E
:102BF000064BAA2212011A602F22DA60044B054A02
:102C00001A60024B5B68002BFBDA70470040024001
:102C10000060024000B0FA0070B5046BE30701D415
:102C2000200070BD02003032C0239B0113430A4ACA
:102C30001A60456A826AAD01AD18AD020620FFF741
:102C400091FE064901F0C4FA0100280001F0C0FA23
:102C50000021FEF7D9FEE3E7010300004E0E00005D
:102C600070B504000E001500FFF7D6FF22002C32CD
:102C7000E16A4E40354080235B0113431D602063B1
:102C800070BD000070B505000C000620FFF76AFE5D
:102C9000C000210001F09CFAC60908D00E4B9E42EC
:102CA00016D87F23184001303400460800E0012484
:102CB0006C62AE62002200212800FFF7D1FF0620DF
:102CC000FFF750FE8000A101891901F081FA70BD63
:102CD0000026024CECE7C046FEFF0000FFFF0000AC
:102CE00010B505394901013AD2001143002B09D032
:102CF00002220A43012B07D0002111436E22FFF765
:102D0000AFFF10BD0022F4E70421F6E7002909D047
:102D10000A22064B9C466044434258414000044B03
:102D2000C252704780225200F3E7C0460080FCBFC9
:102D3000084B002070B505000C000620FFF712FEBE
:102D4000061E27D0164B9D4226D08022D203154B5B
:102D50001A60154B1A60154B9B6811009943FAD104
:102D600000212800FFF7D2FF21002800FFF78AFF8B
:102D700006000023012208212800FFF7B1FF2A00E6
:102D80002C3280239B01134310221A60084B2B63C3
:102D90000323AB64300070BD80221204D7E7C04625
:102DA0000080034000E0004000F0004000C0004010
:102DB0000103000000BEFDE703000A4A1268002A72
:102DC00008D0084A1068C318074A9A4206D3054A31
:102DD00013607047034A05491160F2E70120404241
:102DE000F7E7C046B4440020000004202C4B00202C
:102DF0000020704701204042704710B5FFF7DAFF0E
:102E000010B582B00C001900002A0CD0084B002A23
:102E10000BD00192009323000200064802F00EFC42
:102E20000120FFF7C7FF044BF1E7034AF1E7C04673
:102E30003CBD04104CBD04101C91041070B52B4B0C
:102E40002B4A1A602B4B2C4A1A602C4B9A682A4B3F
:102E50009343FAD12A4C01E008CC9847294B9C4275
:102E6000FAD3FFF7FFFC234B274A1A60234B9B68DA
:102E7000DB43DB01FAD1254B40229A675A671A6778
:102E8000DA66234C09E0234B234A87212348FFF7C6
:102E9000B7FF2000FFF712FA0834214B9C4209D2F9
:102EA0002368002BF5D0012BEDD12000FFF713FA9A
:102EB0000834F2E71B4CA1681B4DC022280002F029
:102EC000DFF9A560EFF30583002B00D000BEFDF70E
:102ED00047FFFFF7C9F9FEF7B1FA144C01E008CC3F
:102EE0009847134B9C42FAD370BDC04600E00040A7
:102EF000BFCDFBFE00F00040FE7F3C0000C0004064
:102F000090260020A0260020FFFFFF0100F00140D6
:102F1000882600207CBD0410E8BD04109CBD041070
:102F20009026002000ED00E000000020A0260020F8
:102F3000C82600200FB400B583B0084802F04EFB4D
:102F4000049B002B07D005A90191180002F056FB45
:102F5000034802F043FB0120FFF72CFFD8BD04100B
:102F6000140205109A4200D288547047704710B579
:102F7000002802D00B684968984710BD0100002066
:102F800007E083001B185B00501C08601078C01815
:102F900030380A681378303BDBB2092BF1D970471F
:102FA000F0B5DE4657464E464546E0B583B09346FB
:102FB0001F000C9B9A460D9C0E9B99460F9B9B07EE
:102FC00003D0B8460F00060022E00192A3468846CF
:102FD0004E46B9460700B44207D2551C4B464146FF
:102FE0002020B84701342A00F5E73D004F465C46F3
:102FF000019B9B46B1464646B84637002E0007E087
:10300000013C551C5346185D43463900B0472A0021
:10301000002CF5D135003E0047460F9B9B0707D497
:10302000100003B0F0BCBB46B246A946A046F0BDB6
:10303000B0464E46B9462F005D46531BB342EFD211
:10304000541C4B4641462020B8472200F5E7F0B516
:10305000CE46474680B585B0944698460C9D0D9C5B
:103060000EAB1B789946109A119B129EB7071CD481
:10307000002B0CD0F7070AD54F46002F02D10C3792
:10308000374204D0013B02E030272F5501349442EF
:1030900001D21F2CF8D9F70707D59C4205D21F2C67
:1030A00003D830272F550134F5E7F70615D57705F6
:1030B00005D4002C03D0944224D09C4222D00F9AF5
:1030C000102A2BD00F9A102A30D00F9A022A35D00E
:1030D0001F2C02D830222A5501341F2C05D84A460D
:1030E000002A31D02D222A550134039602930194EF
:1030F000009543466246FFF753FF05B0C0BCB94692
:10310000B046F0BD621E012C06D00F9F102F01D0DB
:103110001400D4E7023CD2E71400D0E7B206D1D4C1
:103120001F2CCFD878222A550134D1E7B206CCD54E
:103130001F2CCAD858222A550134C9E71F2CC7D8DA
:1031400060322A550134C3E7720703D52B222A5572
:103150000134CAE73207C8D520222A550134C4E712
:10316000F0B5DE4657464E464546E0B593B081463B
:103170008A46089209931CAB10CB1B789B461E9D78
:10318000219B9846002C03D1102342469A43904637
:103190008023DB0046461E4042461A4212D0002CD5
:1031A00022D000260EE03033D9B2771C0AAB9955F5
:1031B0002900200001F00CF8AC4216D31F2F14D8C0
:1031C0003E0004002900200001F002F8CBB2092BD8
:1031D000E9D94246920605D54121C918C9B20A3932
:1031E000C9B2E2E76121F8E7270043460693209B36
:1031F00005931F9B049303955B46029301970AABCB
:103200000093099B089A51464846FFF720FF13B0E8
:10321000F0BCBB46B246A946A046F0BDF0B5DE46BE
:1032200057464E464546E0B595B0089009910A923A
:103230000B931E9E1F9C20AB1B789B46229B99469E
:10324000239D269B9A463300234303D110335246D5
:103250009A4392468023DB0057461F4052461A424B
:1032600019D0330023432DD0002714E03033DAB2D5
:103270007B1C98460CABDA554A462B0030002100E7
:1032800000F0E4FFA5421FD819D043461F2B1BD8DE
:10329000474606000C004A462B003000210000F093
:1032A000D5FFD3B2092BE1D95246920605D541226A
:1032B000D218D2B20A3AD2B2DAE76122F8E7B145BF
:1032C000E3D901E00023984653460693259B0593D6
:1032D000249B04934B4603935B460293434601931E
:1032E0000CAB00930B9B0A9A09990898FFF7AFFE65
:1032F00015B0F0BCBB46B246A946A046F0BD0000E2
:10330000F0B5DE4657464E464546E0B591B0834699
:103310008A460C9298461A9C08941B9D0995220097
:103320002B002000290001F024FA002800D0E5E05D
:1033300001225242D74B2000290001F015FA002843
:1033400000D0DBE001225242D34B2000290001F0E3
:10335000F5F9002800D0D1E000220023089E3000BB
:10336000099D290001F0EAF9002800D0DDE0089865
:103370000999069007918023DB001E9A1A400D924E
:103380001E9A1A4201D106231C930698079904003D
:103390000D000A000600024300D1D1E0080D4005EF
:1033A000400DBE4CA44660440A03120BBC4B1343B1
:1033B0001F0001F0F1F9BB4ABB4B01F074F9BB4AA5
:1033C000BB4B01F049F904000D000022B94B30005D
:1033D000390001F038F9B84AB84B01F064F902003D
:1033E0000B002000290001F037F901F0EDF98146CA
:1033F00001F0D2F904000D00B14AB24B01F053F9CB
:103400000022B14B01F028F901F0DEF90600AF4AC5
:10341000AF4B2000290001F046F904000D003000F8
:1034200001F0BAF9AB4AAC4B01F03DF902000B00D8
:103430002000290001F007F904000D0002000B0034
:1034400001F031F90A900B91A44BF31800261F05E7
:1034500022002B002000290001F0FEF80E900F91B1
:1034600022002B0000208021C90501F0ECF80400A7
:103470000D0000229A4B0A980B9901F0F6F80022F1
:10348000984B01F0E9F802000B000A980B9901F043
:10349000ECF80022944B01F0DFF802000B000A98D0
:1034A0000B9901F0E2F802000B002000290001F066
:1034B000D3F802000B000E980F9901F0D6F8002205
:1034C000774B01F0C9F832003B0001F0ECF8060040
:1034D0000F0004000D00069A079B01F045F9002833
:1034E00030D001235B429C46E14400227D4B3000FA
:1034F000390001F0BAF804000D0023E01E9B04938C
:103500001D9B03931C9B0293089A099B00920193B5
:1035100043460C9A5146584600F0FCF811B0F0BCF6
:10352000BB46B246A946A046F0BD00230024069340
:103530000794069680231B069C46654407951AE768
:10354000002399464B466333C62B1ED804261E9B88
:103550001B0526D52B0023430FD0644A644B0698E5
:10356000079901F0F9F8002879D00022614B0698FC
:10357000079901F0E3F8002871D01C9B4B4506DD4C
:103580004A46981A431E1C9303E00526DFE70023F2
:103590001C938023DB001E9A1A431E9200260023F0
:1035A00099461D9B9E4264D29F1B02231E9A1A407D
:1035B0000A921E9A134202D0002E00D000274B46DA
:1035C000002B07D022002B000698079901F04DF838
:1035D00006900791002200230898099901F0AEF89F
:1035E000002848D1444B1E9A1340049303971C9B18
:1035F0000293069B079C0093019443460C9A514604
:10360000584600F087F8002E00D187E71E9B9B06E6
:103610003DD54525441C4346020051462800D84765
:103620004B46DA179B18534005220592013E04963B
:10363000002203920A3202924A46D00F0190009370
:103640004346220051465846FFF78AFD0A9B002B4D
:1036500000D163E702005F460C9E1D9D54E01C9B59
:10366000002B9ED00D9B002B9BD01C9B013B1C93E1
:1036700097E7002799E7069C079D220029008020F4
:103680000006844661440B0006920793AAE765256D
:10369000C0E7C046FFFFEF7FFFFFEFFF01FCFFFF2A
:1036A0000000F03FFB799F501344D33FB3C8608BB9
:1036B000288AC63F0000F83F61436F63A787D23F67
:1036C00071A379094F930A400000E03F1655B5BB3E
:1036D000B16B0240EF39FAFE422EE63FFF030000D5
:1036E00000002C4000002440000018402D431CEB3B
:1036F000E2361A3F80842E41FFF7FFFF541C4346F9
:1037000051462020B8472200931BAB42F6D310004D
:1037100004E7C046F0B5DE4657464E464546E0B59E
:1037200095B00690079193469946209F1E9A1F9B3D
:103730001000190001F01DF8002831D10122524279
:10374000BF4B1E981F9900F0F9FF002837D10122C6
:103750005242BC4B1E981F9901F006F800283DD13B
:103760000022B94B1E981F9900F0FEFF002850D18F
:103770000022B64B1E981F9900F0E0FF002848D1A8
:10378000002200231E981F9900F0D8FF002850D176
:1037900000239846229B5B0500D4B6E0002458E045
:1037A000229B0393219B029303230193A84B009335
:1037B0004B465A4607990698FFF7F2FB0EE1229B0B
:1037C0000393219B029304230193A24B00934B4646
:1037D0005A4607990698FFF7E3FBFFE00423229A75
:1037E0001A4022990B4210D09B4B002A0FD0042282
:1037F0002299039121990291019200934B465A46D6
:1038000007990698FFF7CCFBE8E0944BEDE703221D
:10381000EEE7229B0493219B039302971E9B1F9C20
:10382000009301944B465A4607990698FFF768FDA6
:10383000D4E01E9A1F9B0020002100F004FF1E9080
:103840001F9101239846A5E70CAB30221A55013F82
:1038500001341F2C01D8092FF6D81E981F9900F0AB
:10386000B3FF050000F098FF02000B001E981F999F
:1038700000F0E9FEFA007A4B9B181A685B680A921E
:103880000B9300F010FF0890099100F0C1FF0600B3
:1038900000F07EFF02000B000898099900F0D3FEAB
:1038A0000890099100226F4B00F05EFF00282ED097
:1038B0000136300000F06CFF02000B000A980B99F3
:1038C00000F042FF002801D001350026002F2CD146
:1038D000280000F061FF02000B001E981F9900F005
:1038E000B2FE06000F0000225E4B00F027FF00280A
:1038F00046D100225B4B3000390000F035FF002834
:103900003ED1EB073CD501353AE0062746E70022D9
:10391000544B0898099900F011FF0028D6D1002EC9
:1039200001D0F307D2D50136D0E7AA461F2C11D813
:10393000013F0A21300000F04BFC651C30310CAB1C
:1039400019550A21300000F043FC092E0ED906005B
:103950002C00EBE755461F2C0CD87B1E002F09D0FE
:103960000CAA302111551F000134F4E72B005546F5
:103970001C00F0E71F2C03D80CAB2E221A55013483
:103980001F2C10D80A21280000F0FAFB661C3031E9
:103990000CAB19550A21280000F0F2FB051E01D0DE
:1039A0003400EDE734000323229A1340012B1CD08E
:1039B0001F2C06D84346002B32D00CAB2D221A55B3
:1039C0000134229B0393219B029301940CAB00933F
:1039D0004B465A4607990698FFF7E2FA15B0F0BC35
:1039E000BB46B246A946A046F0BD219B002B13D092
:1039F0004346002B02D10C3313420FD0219B013BD5
:103A00002193190003E00CAB30221A5501348C428B
:103A1000CED21F2CF7D9CBE72199F8E72199F6E709
:103A2000229B5B0704D50CAB2B221A550134C8E747
:103A3000229B1B07C5D50CAB20221A550134C0E7C9
:103A4000FFFFEFFFFFFFEF7F65CDCD4165CDCDC11E
:103A500004BE041008BE0410FCBD0410F8BD041020
:103A6000F0BF04100000E03FF0B5DE4657464E467A
:103A70004546E0B593B082468B46904611930029A7
:103A800000D1EBE200275546119B1878002800D1A1
:103A9000E7E2252809D07C1C43463A005946A8474E
:103AA000119B013311932700EEE70133119300249A
:103AB000119A11780B00203BD8B2102803D883004C
:103AC000D048C3589F460B00303BDBB2092B2CD9A2
:103AD0002A292FD000230A93119B1A782E2A39D035
:103AE00000239A46119A1378683BD9B2122976D8E6
:103AF0008B00C549CB589F4601231C4301321192CC
:103B0000D6E702231C4301321192D1E704231C4360
:103B100001321192CCE708231C4301321192C7E70E
:103B200010231C4301321192C2E711A8FFF726FAB5
:103B30000A90D1E71C9B1A1D1C921868002804DB10
:103B40000A90119B01331193C6E702231C434342A1
:103B50000A93F6E78022D20014435A1C11925A7835
:103B60001300303BDBB2092B04D92A2A07D00023EB
:103B70009A46B7E711A8FFF701FA8246B2E71C9B05
:103B80001A1D1C921868002804DB8246119B013321
:103B90001193A7E70020F8E780235B002343511C23
:103BA000119152786C2A01D01C0018E0C0239B00B0
:103BB0001C430131119112E080232343511C1191C8
:103BC0005278682A01D01C0009E0C0231C4301314F
:103BD000119104E080235B001C4301321192119B80
:103BE00018780300253BDAB2532A00D92CE293005F
:103BF000864AD3589F4680239B001C430132119272
:103C0000EDE780235B001C4301321192E7E778283F
:103C100009D0582838D06F2838D0622838D01023DF
:103C20009C430A2600E01026582833D0692803D088
:103C3000642801D00C229443630501D501229443EA
:103C400069282AD0642828D0A30500D59FE0E30581
:103C500000D5B8E0630600D4CAE01C9A111D1C917F
:103C60001168FF220A4005940A9B0493534603936C
:103C7000029600230193009243463A0059462800D9
:103C8000FFF76EFA070027E01026CDE70826CBE7FE
:103C90000226C9E720221443C8E7A30520D4E30580
:103CA00050D4630666D51C9A111D1C911168FF2221
:103CB0000A40D317D118594005940A9B04935346E0
:103CC00003930296D20F0192009143463A0059465F
:103CD0002800FFF745FA0700119B01331193D3E643
:103CE0001C9BDA1D07218A43110008311C911168C1
:103CF00053689C46DB170C930D930C9A0D9B100098
:103D000048400E90624653400F930E980F990C9ABC
:103D10000D9B801A99410E900F9108940A9B07936E
:103D2000534606930496002305936346DA0F0292E6
:103D30000090019143463A0059462800FFF76EFA79
:103D40000700C9E71C9A111D1C911268D317D118DE
:103D5000594005940A9B0493534603930296D20F4D
:103D60000192009143463A0059462800FFF7F8F9BE
:103D70000700B1E7230605D51C9A111D1C910023ED
:103D8000D25E96E71C9A111D1C91126891E71C9B4C
:103D9000DA1D07218A43110008311C9108940A9BFF
:103DA00007935346069304960023059302931368E2
:103DB00054680093019443463A0059462800FFF79F
:103DC0002DFA070088E71C9A111D1C9105940A9B87
:103DD00004935346039302960023019313680093C0
:103DE00043463A0059462800FFF7BAF9070073E73F
:103DF00023060DD51C9A111D1C9112681204120C79
:103E000031E7C04610BE041054BE0410A0BE04101A
:103E10001C9A111D1C91126825E746281AD01C9B7C
:103E20000733072293431A0008321C9204940A9A1B
:103E30000392524602925C681B68009301944346C9
:103E40003A0059462800FFF765FC0700119B013333
:103E5000119319E620231C43E1E7672801D0472886
:103E600002D180231B011C43452801D0472801D1E2
:103E700020231C431C9B0733072293431A0008325C
:103E80001C9204940A9A0392524602925C681B6840
:103E90000093019443463A0059462800FFF730FA50
:103EA0000700119B01331193EEE502231A00224013
:103EB000924623421FD001241C9B1A1D1C927A1C7F
:103EC0009146187843463A005946A8475346002B76
:103ED00016D1119B013311934F46D5E5561C43462D
:103EE00059462020B847230032005C1C9D42F5D87B
:103EF0003D001700E0E701233A002F000A9DF4E798
:103F00004A46A9460A9D06E0571C434659462020CA
:103F1000C84734003A00661CA542F5D84D46914684
:103F2000D7E71C9B1A1D1C921B6899465346002B11
:103F300000D1013B4E4601E0013613003278002AE1
:103F400002D05A1E002BF7D14B46F21A1092802352
:103F5000DB0026001E401C4203D0524501D95346C7
:103F6000109302231A0022400B92234205D03A00FC
:103F700037004C46A946554620E03A00109B5F4664
:103F8000B3462E0006E0551C434639002020B047BA
:103F900023002A005C1C0A999942F4D835005E4639
:103FA000BB46109437004C46A946554606E01D0016
:103FB0000134561C43465946C84732002078002831
:103FC00004D0002FF4D06B1E002DF0D117004D4609
:103FD0000B9B002B03D1119B0133119354E50A9FD6
:103FE000109B06E0561C434659462020A847230054
:103FF00032005C1C9F42F5D81700ECE721231C43DC
:104000001C9B1A1D1C921B680093059408230493A3
:1040100053460393102302930023019343463A002F
:1040200059462800FFF79CF80700119B01331193B4
:104030002AE57C1C43463A0059462520A847119B97
:104040000133119327001FE57C1C43463A00594673
:10405000A847119B01331193270015E50A4B9A4697
:1040600010E5AA46474502D343465A1E00E03A00EF
:10407000434659460020D047380013B0F0BCBB4639
:10408000B246A946A046F0BD6D2F00100EB410B583
:1040900085B0010007AC08CC039401220094524281
:1040A0000348FFF7E1FC05B010BC08BC03B018479B
:1040B000652F00100CB410B584B00A0006AC08CC13
:1040C0000394009401000448FFF7CEFC04B010BC38
:1040D00008BC02B01847C046652F001000B583B079
:1040E000009313000A0001000248FFF7BDFC03B073
:1040F00000BDC046652F001000B585B00290039149
:104100000121009313004A4202A90248FFF7ACFCC8
:1041100005B000BD6F2F001001480421014B184766
:10412000801B00204941001010B5010018231B8896
:1041300014221088984710BD10B5010018231B8861
:1041400016221088984710BDF0B5C64600B5070086
:104150000E0000250123984600E00135B5420AD241
:10416000AC003C192068FFF7DFFF20600028F4D185
:1041700000239846F1E7404680BCB846F0BD0000F9
:10418000124A936F9B0815D29066D166002905D01C
:10419000FFE7FFE7FFE7516F106F704704B580211D
:1041A0000906C2175140002800D0C84344F008FE59
:1041B000002104BDF0B5146E556E576F166FFFF7F2
:1041C000E3FF1466556657671667F0BD000000D020
:1041D000114A936F9B0813D210665166002905D0CF
:1041E000FFE7FFE7FFE7516F106F704704B5002846
:1041F00001D00020C04344F0E3FD002104BDC046CF
:10420000F0B5146E556E576F166FFFF7E5FF146625
:10421000556657671667F0BD000000D094464A4ABD
:10422000926F9208624601D228E0C046F0B5464E31
:10423000346E756E776F366F00F020F89446424A00
:1042400014665566576716676246F0BD94463E4A47
:10425000926F9208624601D254E0C046F0B53A4EE1
:10426000346E756E776F366F00F04CF89446364AB0
:1042700014665566576716676246F0BD002B24DB4F
:1042800011D000293EDA00B5C943404200D10131C6
:1042900000F038F8C943404200D10131DB435242BB
:1042A00000D1013300BD002AEBD1002801D1002943
:1042B00005D00020C90FC90701D1C043410800B58E
:1042C00044F056FD0022002300BD00B500290ADBA2
:1042D000DB43524200D1013300F014F8C94340429D
:1042E00000D1013100BDC943404200D10131DB435F
:1042F000524200D1013300F005F8DB43524200D1B5
:10430000013300BD002923D1002B18D1002A0CD085
:10431000BC460D4F38667A6600210023FFE7FFE7B1
:10432000FFE77A6F386F67467047002801D007486B
:10433000010000B544F01CFD0022002300BD020076
:104340000B00002000217047000000D0FFFFFFFF9E
:10435000002B00D0BFE0130C28D1002AE7D080B496
:10436000114F39667A66FFE7FFE730B4040C7B6FC4
:10437000396F1B0423433B667A66FFE7FFE7FFE7DD
:10438000C04684B27B6F3D6F1B0423433B667A6655
:10439000FFE7FFE7C04600232C042D0C7A6F386F2F
:1043A00000196941B0BC7047000000D0F0B59446D8
:1043B0000025140E01D112020835140F01D112018B
:1043C0000435940F01D192000235D40F01D152006F
:1043D0000135D40B0134254F7C66254C3C660E0C10
:1043E00093B2FFE7FFE7FFE73C6F6643360C7703C6
:1043F000BE467343DF0B5B04C01AB941130C734311
:10440000DB18C91ACE086643360CB64493B2734320
:104410001F0F1B01C01AB941130C73431F0B1B055F
:10442000C01AB941860D8F023E436643360C092DF2
:1044300024DB520A7243801A7703460A6643360C1D
:1044400016235B1BDE40DF40BF1964466643821BB8
:104450007046043506330100D940A840C01900D386
:104460000131A24206D20023F0BD0000000000D0BE
:10447000FFFFFFFF121B0130F3D3F1E709277F1B7A
:10448000FE406446A2B27243801A00D20139220C67
:104490007243130C1204821A99410B0070460435C2
:1044A00013370100F940A840801900D30131002BD7
:1044B00002D1A2420AD2F0BD013000D30131121B59
:1044C000FAD2013BF8D1A24200D2F0BD013000D3B4
:1044D0000131121BF7E7F0B51C0C00D080E00CB4E2
:1044E00000251C0A04D11B02160E334312020835A4
:1044F0001C0B04D11B01160F3343120104359C0B16
:1045000004D19B00960F334392000235DC0B02D19D
:1045100092185B4101351C00971864410134464FE5
:104520007C66464C3C660E0CFFE7FFE7FFE7C046A3
:104530003C6F6643360C7703BE4697B27743C01B89
:1045400000D20139C01B00D201399FB27743C91B89
:10455000C91B170C77437E04FF0B801BB941CE08A3
:104560006643360C0C2D33DBB644120B1F053A4361
:104570001B0B97B27743C01B00D201399FB2774320
:10458000C91B170C77433E043F0C801BB941860DB5
:104590008F023E43664329277F1BFE400C3D774632
:1045A000AF40BF1930BCA2B2ABB272437343801AA2
:1045B0009941220C7243130C1204801A9941020093
:1045C0000B000137001BA941F9D2781E0021F0BD74
:1045D0000C277F1BFE4077467F0BAF40FF19E0E7BB
:1045E00000245D1C07D0144F7D663966FFE7FFE7A6
:1045F000FFE7FFE73C6F95B29EB265436643401B01
:10460000B141150C1E0C6543664336042F0C3E4326
:104610002D04401BB141994204D202000B0020003E
:104620000021F0BD01D19042F7D3801A99410134A5
:104630009942F2D3F6E70000000000D0FFFFFFFF31
:1046400048404140484018B41B4B5B68FC4601930E
:1046500008BD04DFB349001018B4174B1B68FC46B3
:10466000019308BD00DFBD4900109446134A926FC4
:10467000920809D2624618B40F4BDB68FC460193DE
:1046800008BD0CDF754C00100C4AF0B5146E556E69
:10469000576F166F6246FFF7EEFF084A14665566BD
:1046A00057671667F0BD18B4034B9B68FC4601932F
:1046B00008BD08DF194B0010E8480020000000D0BA
:1046C000FFB550404240504059404B40594000E0F7
:1046D000FFB5154F4C00640D03D0BC4204D10C0350
:1046E00014D80020090D09055C00640D03D0BC42FC
:1046F00004D11C030AD800221B0D1B0501264B40C8
:1047000009D44B4003D58B4200D18242FFBD994270
:10471000FCD19042FFBD0B43DB1803431343F5D09C
:10472000C9434918FFBD0000FF07000000B5FFF7AF
:10473000CFFF01D0002000BD012000BD00B5FFF774
:10474000C7FF804100BDC04600B5FFF7C1FF01D9DA
:10475000002000BD012000BD00B5FFF7B1FF01D969
:10476000002000BD012000BD00B5FFF7A9FF80417A
:1047700000BD012040054A00121804D85A00121842
:1047800001D80020704701207047002070470000CA
:104790000021002805D17047C1174840401AFAD0BF
:1047A000C90713B5064B1B6898470CBC441CA240B4
:1047B0001005120B0349091B09051943114310BDCC
:1047C000E84900201F04000010B54C00620D802352
:1047D000D218DB00D21A5B057E2A10DD9E3A13DA6E
:1047E000CC170903490819435242D14064000134EF
:1047F0001532202A05DAD0400843604310BD00205E
:1048000010BD0846604310BDC80FC018013810BD68
:1048100018B4044B5B6AFC46019308BD24DF254EA7
:1048200000100000E848002018B4044BDB6DFC4683
:10483000019308BD5CDF314F00100000E848002004
:10484000C94211D300B549004908002200F018F808
:10485000002904D4002240428A41114600BD802133
:104860000906002000BD000018B4044BDB6EFC46B6
:10487000019308BD6CDF334E00100000E8480020B3
:1048800018B4044B9B6FFC46019308BD78DF4F4E74
:1048900000100000E848002018B4044BDB6FFC4611
:1048A000019308BD7CDFBD4E00100000E8480020E9
:1048B00070B513231C78012C14D0012C14DC022CAD
:1048C00002DC1F4A1F4B9A641F48FFF72DFC1F4B49
:1048D000186070BD99001A481A4A885001331F2B7E
:1048E000F8D9EAE70023FAE71948FFF725FC0500A5
:1048F0001848FFF721FC023803789B007F2B19DD55
:10490000802229000F4800F0BBFC022CD7D1124BAB
:104910001A88B5231B029A4209D1104B1A88104BF2
:104920009A4204D10F4B1A880F4B9A42C7D00020ED
:10493000FEF700FB0D4B0E4A32210E48FEF760FADF
:1049400079490010E84800204C330000E849002075
:10495000534400005346000054380000D83800008B
:10496000494600009C3800005946000040C0041031
:10497000D8C0041094C0041007B56046002800D1C8
:1049800000BE01880A0A0230DF2AFAD1C9B28208C1
:1049900004D3028840880004104300E00068024A03
:1049A0005050039007BD0000E84800200FB403BC3E
:1049B0000CBCF0B50124E407634000E0F0B50C0D39
:1049C000CF0F661E3605891B640503D3C9434042D9
:1049D00000D30131640D03D0661CF60A07D0E41B36
:1049E00000207F00791C89078912803C24031D0D5B
:1049F000DF0F6E1E36059B1B6D0503D3DB43524252
:104A000000D301336D0D03D06E1CF60A07D0ED1BE9
:104A100000227F007B1C9B079B12803D2D032F1BD8
:104A2000661B58D4A446202E46DA20371400BC401A
:104A30001D00BD40F24033412A4380185941CB0F3D
:104A400005D0C943C04300226442504151416246EF
:104A50004D0D28D10D0D07D100281FD0241940413C
:104A60004941013A0D0DF9D0640006D3013000D35D
:104A70000131002C01D140084000013A0BD4941CB4
:104A8000E40A04D112051144DB071944F0BDD9072B
:104A9000204B194300E0D9070020F0BD0029DDD1EB
:104AA000002CDBD1F0BD0132C6074008CD072843FA
:104AB0004908002EE1D0D9E73C2E29DA203E4037C4
:104AC0001400BC4000D00124F24014431A00BB4043
:104AD0001C43D317ACE7AC46202F08DA203604007D
:104AE000B4400D00B540F84039412843A5E73C2FBC
:104AF0000CDA203F40360400B44000D00124F840D6
:104B000004430800B1400C43C117EAE71000190044
:104B1000002494E70000F07FF0B50C0D661E36050A
:104B2000891BE60A6405640D02D0651CED0A04D0F9
:104B3000002001210905803C2403A4461C0D671EAA
:104B40003F05DB1BE70A6405640D02D0651CED0A16
:104B500004D0002201231B05803C240377406444D9
:104B600097B484B296B27443070C7E43150C6F431E
:104B700080B26843361802D3012000043F18300485
:104B8000350C00197D41844688B29AB250430C0C12
:104B900062431F0C7C438EB27E43921902D30126DE
:104BA0003604A4191604170C3618674101BC81B2EB
:104BB0009AB25143040C62431B0C5C4380B25843CD
:104BC000121802D30120000424181004130C4018FA
:104BD00063412D185E410020474106BC88B293B264
:104BE00058430C0C6343120C544389B251435B1875
:104BF00002D301210904641819041A0C091862412E
:104C00006D1856410020474118BCF902720D11433E
:104C1000F0026A0D1043ED020A0D03D16D194041F7
:104C20004941013B124E9B1B7600B3420ED26D00F0
:104C300007D30130002671416646354301D1400853
:104C400040001B05C918E4072144F0BD0BDA01330D
:104C500006D1013004D101314F0D01D04908F2E7EE
:104C6000E1070020F0BD013631050020EBE7000030
:104C7000FF030000F0B51C0D671E3F05DB1BE70AB4
:104C80006405640D02D0661CF60A04D000220123DC
:104C90001B05803C2403D0252D060026F6432E66F6
:104CA0001E096E66CE0FF619B44649004F0D02D0AC
:104CB0007E1CF60A03D000200021403F3F033E1B2C
:104CC000B600B444013F7F05C91B49082E6F013669
:104CD00076089C02950D25437543ED137543AD137E
:104CE00001356D10F603761B0CB4CC02450D2C4338
:104CF000A2B2B3B25A43270C7B43350C6F43A4B224
:104D00006C431B1902D3012424043F191C041D0CFD
:104D1000A4187D4124196D41009A91B2ACB261434F
:104D2000170C7C432B0C5F4392B25A43A41802D356
:104D300001221204BF182204230C52187B41019C4B
:104D40006C431B19520ED9010A434401A01A81B2C7
:104D5000B2B2514303145A43360C734387B27743BC
:104D6000D617D21900277E4136049B191704160C5A
:104D70007F185E417316ED18F301002680337541EC
:104D8000A90F06D16400690AE8055B0A184309D235
:104D90002FE00422944480337541A90AA8059B0A98
:104DA000184326D3404149412404009A019B0D0039
:104DB0005543641B4343E41A95B286B27543170CFE
:104DC0007E43030C5F4392B25A43B61802D30122CA
:104DD0001204BF183204330C52197B4152429C41D9
:104DE000002C02D40022013051414008CA07104370
:104DF000490802B06246D7079210084BD218084BF8
:104E00009A4203D212058918C919F0BD0020002A60
:104E100001DC3900F0BD01331905F5E7FD030000A1
:104E2000FE070000002200B5203200F010F8080054
:104E300000BD002200B500F00CF8CA179A4200D15C
:104E400000BDD8430121C907414000BD00220B1518
:104E50000AD410B5944600F0A7F81414013400DA0F
:104E60000021CB17144C20470020002170476244DA
:104E7000343A0CD40C2A07DA040091409040524294
:104E80002032D440214310BDD843D94310BD203235
:104E900007D40C469440524220321141D040204366
:104EA00010BD0800C917203203D4524220321041ED
:104EB00010BD1800190010BD6F4E00104A00520DB1
:104EC000144BD21A13DDFF2A1EDAD205CB0FDB07F3
:104ED0001A43C300400F0903490A084310435B000B
:104EE00001D301D0013070474308FBD2704702D094
:104EF000C80FC00770470A0312130132F8D1420FDE
:104F0000072AF5D1012200E0FF22C80F0002801815
:104F1000C00570478003000000210A00002104E062
:104F200000210A00C11704E00022002306E0C04669
:104F30000022CB1758405940C01A994130B5184C3F
:104F4000A21A002903D1010010D00020203A4C15EC
:104F500012D104D2013A001849414C0DFAD3114C38
:104F6000A24204D212058918DB07C91830BDD2430A
:104F7000520D00200021F5E703D4013A0018494101
:104F8000FBD50B324405C00A4D052843C90A64000D
:104F900003D0002460416141E1E7E0D34408F8E731
:104FA00032040000FE0700000A0DCC0F531E1B0543
:104FB000C91A520503D3C943404200D30131520DEF
:104FC00003D0531CDB0A07D0121B00206400611CB5
:104FD00089078912803A1203014BD21A70470000E8
:104FE000FF03000051434343C9188C46110C83B2A0
:104FF0004B4310B4040C614392B280B250436243FD
:105000001C041B0C001910BC59411304120CC018CD
:10501000514161447047000007B548404140484055
:1050200001E0C04607B54200120E03D0FF2A03D1AB
:10503000420218D8C00DC0054A00120E03D0FF2A44
:1050400003D14A020FD8C90DC9050122414005D438
:10505000414001D5814207BD884207BD014349183F
:1050600001D0C043001807BD00B5FFF7DBFF01D03A
:10507000002000BD012000BD00B5FFF7D3FF01D91E
:10508000002000BD012000BD01231B064200D218F4
:1050900004D84A00D21801D8002070470120704778
:1050A000034BDB6FFC4618477CDFE5510010000026
:1050B000EC49002070B513231D782A48FFF73CF80F
:1050C0000400012D11D0012D09DDA31E1B789B00CA
:1050D0007F2B40DD80222100234800F0D1F82348B7
:1050E000FFF722F8224B186070BD542201001E48C1
:1050F00000F0C6F81F4B1A881F4B9A421CD1A723F9
:105100009B011A881D4B9A4216D11D4B1A881D4BC4
:105110009A4211D11C4B1A8894239B019A420BD1BD
:105120001A4B1A881A4B9A4206D11A4B1A681A4B14
:105130009A4201D1152307E01848FDF7FBFE9900BC
:105140001748094A885001331F2BF8D9144A064BD7
:105150001A62DA61B7E7134B134A42211348FDF78D
:105160004FFEC04653460000EC4900204C3300007F
:10517000E8490020EE290000C40F0000C20D000025
:10518000962B0000C0B50000182B0000CC2A0000B0
:1051900010B50000FC2C000051ED87641C91041038
:1051A000B1510010ECC0041064C1041020C10410FF
:1051B00007B56046002800D100BE01880A0A023007
:1051C000DF2AFAD1C9B2820804D3028840880004D9
:1051D000104300E00068024A5050039007BD0000F1
:1051E000EC490020C30FDB0741000A0E07D0FF2A5D
:1051F00008D00909054A8918194340077047190062
:10520000002070470249C918FAE700000000003882
:105210000000F07F10B5040036F0FAFA002804D040
:105220000419034B9C4200D810BD0248FDF782FED2
:105230000000042078C1041010B50C0036F062FFA5
:10524000002804D00419034B9C4200D810BD02482A
:10525000FDF770FE0000042078C1041010B536F090
:10526000E1FA10BD01480421014B1847901B0020B2
:1052700049410010014B1B6818470000901B00209B
:10528000014B5B6818470000901B002010B5FFF72A
:10529000C1FF10BD10B5FFF7BDFF10BD10B5FFF782
:1052A000DDFF10BD10B5FFF7D9FF10BD10B5FFF73A
:1052B000D5FF10BD10B50300080011001B6898470A
:1052C00010BD0000F8B507000D001600437D002B4F
:1052D00002D0002400200CE0036811002800984749
:1052E0002DE03B7D10E0022115483B689847601C8B
:1052F0000134B44214DA002CF3DD2B19013B1B7886
:105300000D3B5A425341DBB22A5D0A2AF0D1002BF1
:10531000EED1A042E7DA211A28183B689847E2E765
:10532000B04203DA311A28183B689847002E06DD90
:10533000AD19013D2B780D3B5A4253413B75F8BDE9
:1053400000C2041070B505000368002B16D00C4B8A
:105350001C6805E0290004C92000FFF7B3FF246999
:10536000002C09D02368002BF9D0064B1B68002BBA
:10537000F0D0A342F3D1EDE700232B6070BDC0460F
:10538000A4440020B044002070B505000C000B6858
:10539000802B05D021684B1C23606418257170BDDB
:1053A0000800FFF7CFFFF5E7F0B583B007000E0068
:1053B0000092019328E0A368002B04D0310038004C
:1053C0009847002827DC2469002C06D0134B1D6861
:1053D000002DF0D0A542F6D1EDE70099019A104BCF
:1053E0005B6A9A4209D80E48806A88420FD29A4274
:1053F00001D0012302E0002300E00023002B08D1AC
:1054000001200021FCF700FB064B1C68DCE70123B0
:10541000F4E70120404203B0F0BDC046B044002094
:1054200000400540A444002010B5FCF7CDFA02006E
:105430000B1E0BDB0D48002112184B41002B0BDB20
:10544000002B0DDB0A4843F0FBFC10BD094B0A4A58
:105450003F210A48FDF7D4FC01225242084BEFE7F6
:10546000044B054A3F210548FDF7CAFC40420F00A6
:105470008826002070900410E8C10410C490041025
:10548000FFFFFF7F10B5024843F06AFC10BDC04625
:1054900088260020F0B5CE46474680B583B006008A
:1054A0000D0090461C00FFF7BFFF81466B1C05D026
:1054B000002C08D0194F1A4B1C6807E0300038F058
:1054C0002DF90500F4E7174FF5E72469002C17D0F4
:1054D0002368002BF9D0144B1B68002B01D0A3428A
:1054E000F3D12A0031002000B8474346002BECD00E
:1054F0006B46D91D0A230B7001222000B847E4E750
:105500004B46002B07D16B1E9D41E8B203B0C0BCD7
:10551000B946B046F0BDFFF7B5FFF4E7B55200104D
:10552000A4440020C5520010B044002010B5030070
:1055300008001100002B05D1044B1A685B68FFF7C7
:1055400033FF10BD01204042FBE7C04680B6041087
:1055500010B5030008001400013B012B06D80023FE
:1055600000222100FFF796FF200010BD01204042DD
:10557000FBE7012040427047012040427047012074
:10558000404270470300002002229A424041704787
:10559000094A01E010331A001368002B08D0834237
:1055A000F8D1002907D1036913600023036102E0E9
:1055B000002900D010607047A444002010B5064BAD
:1055C0001C6801E098472469002C03D06368002B15
:1055D000F8D1F8E710BDC046A444002070B505001E
:1055E00038F09CF804000023012201002800FFF796
:1055F00051FFFFF7E3FF200070BD000070B5A2B0BF
:1056000004000E00FFF710FF050000230193330094
:10561000220001A90848FEF76FFD040001A8FFF76A
:1056200091FEFFF7CBFF002D02D1200022B070BD0C
:10563000FFF728FFF9E7C046895300100FB400B503
:1056400083B004A901C90191FFF7D8FF03B008BCDA
:1056500004B0184710B500F037F910BD70470000CE
:10566000014B00221A707047234B00204B79FF2B0F
:105670000CD18B79002B0BD1CB79012B0AD1082AC5
:105680000AD98A78054B1A70092000E0002070477B
:105690000020FCE70020FAE70020F8E7234B002079
:1056A0000120704770B504000D000348FEF73CFD73
:1056B00003002900200098475542000010B5012939
:1056C00026D1117953791B020B43124909788B4279
:1056D00001D000201DE05378012B03D0022B10D005
:1056E000002016E09178D3781B021943DB0506D51C
:1056F0004B0A012098407F231940FFF7D3FF002079
:10570000F9E7642200210020FDF74EFA012000E0B5
:10571000012010BD234B0020012303700048704777
:1057200004C2041010B50B784878000218438A7838
:1057300012041043CB781B0603439622D2009342F7
:1057400000D010BD00210800FFF7ACFF024B18602D
:10575000024B19607047C046084400200C440020EA
:1057600010B5024B1878FCF7CBFA10BD244B002083
:1057700070B5134B1B68002B1DD0114B1968EFF34C
:10578000108372B60A68002AFCD0BFF35F8F0C4901
:105790004B6000220B4802700968BFF35F8F0A60FC
:1057A00083F3108800240025074B1878FCF7A8FA2B
:1057B0002000290070BDFA24A4000025F4E7C046AB
:1057C000C4480020254B0020244B002010B584B095
:1057D00000212D4843F004FB00283AD12B4B1B68D5
:1057E000002B3ED0294B1968EFF3108272B60B687C
:1057F000002BFCD0BFF35F8F24494A602448037814
:1058000001246340DBB2012404700968BFF35F8F99
:105810000020086082F31088002B22D0FBF72EFEB8
:105820000400FCF7D1F802000B1E1CDBFA208000FC
:10583000002112184B41002B1BDB002B1DDB01212B
:10584000029100210191134900912000FBF72CFEE9
:1058500007E001200021404201F0F0F80A4843F03F
:105860007FFA04B010BD0C4B0C4A3F210C48FDF7E9
:10587000C7FA012252420B4BDFE7074B074A3F2191
:105880000748FDF7BDFAC046F04A0020C448002092
:10589000254B002071570010709004108CC204102A
:1058A000C4900410FFFFFF7F10B5054B1868002857
:1058B00004D0044B1968002200F0E6FD10BDC0467C
:1058C000084400200C44002010B584B0D0231B06EF
:1058D0001C68FBF7D3FDFBF717FFA0422AD1324B20
:1058E0001B7801F093FD3148FCF7E8FC0120FCF740
:1058F000C9FCC0B22E4C20702E49FCF723FA207848
:105900000121FCF7F5F90520FCF70AFA041E17D06F
:10591000002229490520FCF73FFAFBF731FA010084
:105920002648FCF7E7FC01212548FFF731FE20005F
:1059300004B010BD234B244AB2212448FDF760FA7D
:10594000FBF79CFD0400FCF73FF802000B1E1BDB7D
:10595000FA208000002112184B41002B1ADB002B8B
:105960001CDB0121029100210191194900912000C5
:10597000FBF79AFDC443E40F082200210F48FFF70C
:1059800079FC002CD3D0CEE7124B134A3F211348A9
:10599000FDF736FA01225242114BE0E70D4B0E4A59
:1059A0003F210E48FDF72CFAA48A0510F04A00208A
:1059B000244B0020CD57001061570010C448002030
:1059C000A01B002000B904107CC204101CC20410EB
:1059D00071570010709004108CC20410C490041011
:1059E000FFFFFF7F10B5002001F030FA10BD00006E
:1059F00070B505000C00FFF7F5FF002845D000202A
:105A000001F046FA002843D0FBF7DEFF02000B1E30
:105A100021DB2248002112184B41002B21DB002BF7
:105A200023DB1F4843F00CFA002834D0FFF7DAFFDD
:105A3000002804D0002001F02BFA00281BD10120FF
:105A40000021404200F0FAFF03246442144843F06E
:105A500087F9200070BD134B134A3F211348FDF70F
:105A6000CFF901225242124BD9E70E4B0E4A3F2189
:105A70000E48FDF7C5F922002900002001F014FAB4
:105A8000041EE3D103246442E0E703246442E0E718
:105A900003246442DDE703246442DAE740420F0056
:105AA000F04A0020709004108CC20410C4900410BE
:105AB000FFFFFF7FF0B5C64600B580460C00FBF740
:105AC00083FF02000B1E0FDB3748002112184B41E9
:105AD000002B0FDB002B11DB344843F0B1F9002819
